{
  "_format": "hh-sol-artifact-1",
  "contractName": "FireFighter",
  "sourceName": "contracts/FireFighter/FireFighter.sol",
  "abi": [
    {
      "anonymous": false,
      "inputs": [
        {
          "indexed": true,
          "internalType": "uint256",
          "name": "feeBps",
          "type": "uint256"
        }
      ],
      "name": "FeeBpsChanged",
      "type": "event"
    },
    {
      "anonymous": false,
      "inputs": [
        {
          "indexed": true,
          "internalType": "address",
          "name": "fighter",
          "type": "address"
        }
      ],
      "name": "FighterAdded",
      "type": "event"
    },
    {
      "anonymous": false,
      "inputs": [
        {
          "indexed": true,
          "internalType": "address",
          "name": "fighter",
          "type": "address"
        }
      ],
      "name": "FighterRemoved",
      "type": "event"
    },
    {
      "anonymous": false,
      "inputs": [
        {
          "indexed": true,
          "internalType": "address",
          "name": "previousGovernor",
          "type": "address"
        },
        {
          "indexed": true,
          "internalType": "address",
          "name": "newGovernor",
          "type": "address"
        }
      ],
      "name": "GovernorshipTransferred",
      "type": "event"
    },
    {
      "anonymous": false,
      "inputs": [
        {
          "indexed": true,
          "internalType": "address",
          "name": "previousGovernor",
          "type": "address"
        },
        {
          "indexed": true,
          "internalType": "address",
          "name": "newGovernor",
          "type": "address"
        }
      ],
      "name": "PendingGovernorshipTransfer",
      "type": "event"
    },
    {
      "anonymous": false,
      "inputs": [
        {
          "indexed": true,
          "internalType": "address",
          "name": "fighter",
          "type": "address"
        },
        {
          "indexed": true,
          "internalType": "address",
          "name": "token",
          "type": "address"
        },
        {
          "indexed": true,
          "internalType": "uint256",
          "name": "typeOfToken",
          "type": "uint256"
        }
      ],
      "name": "TokenAdded",
      "type": "event"
    },
    {
      "anonymous": false,
      "inputs": [
        {
          "indexed": true,
          "internalType": "address",
          "name": "fighter",
          "type": "address"
        },
        {
          "indexed": true,
          "internalType": "address",
          "name": "token",
          "type": "address"
        },
        {
          "indexed": true,
          "internalType": "uint256",
          "name": "typeOfToken",
          "type": "uint256"
        }
      ],
      "name": "TokenPulled",
      "type": "event"
    },
    {
      "anonymous": false,
      "inputs": [
        {
          "indexed": true,
          "internalType": "address",
          "name": "fighter",
          "type": "address"
        },
        {
          "indexed": true,
          "internalType": "address",
          "name": "token",
          "type": "address"
        },
        {
          "indexed": true,
          "internalType": "uint256",
          "name": "typeOfToken",
          "type": "uint256"
        }
      ],
      "name": "TokenRemoved",
      "type": "event"
    },
    {
      "anonymous": false,
      "inputs": [
        {
          "indexed": true,
          "internalType": "address",
          "name": "fighter",
          "type": "address"
        },
        {
          "indexed": true,
          "internalType": "address",
          "name": "token",
          "type": "address"
        },
        {
          "indexed": true,
          "internalType": "uint256",
          "name": "typeOfToken",
          "type": "uint256"
        }
      ],
      "name": "TokenSettled",
      "type": "event"
    },
    {
      "anonymous": false,
      "inputs": [
        {
          "indexed": true,
          "internalType": "address",
          "name": "treasury",
          "type": "address"
        }
      ],
      "name": "TreasuryChanged",
      "type": "event"
    },
    {
      "anonymous": false,
      "inputs": [
        {
          "indexed": true,
          "internalType": "address",
          "name": "fighter",
          "type": "address"
        },
        {
          "indexed": true,
          "internalType": "uint256",
          "name": "amount",
          "type": "uint256"
        }
      ],
      "name": "WaterAdded",
      "type": "event"
    },
    {
      "anonymous": false,
      "inputs": [
        {
          "indexed": true,
          "internalType": "address",
          "name": "fighter",
          "type": "address"
        },
        {
          "indexed": true,
          "internalType": "uint256",
          "name": "amount",
          "type": "uint256"
        }
      ],
      "name": "WaterRemoved",
      "type": "event"
    },
    {
      "inputs": [
        {
          "internalType": "address",
          "name": "_subject",
          "type": "address"
        }
      ],
      "name": "_ethBalance",
      "outputs": [
        {
          "internalType": "uint256",
          "name": "",
          "type": "uint256"
        }
      ],
      "stateMutability": "view",
      "type": "function"
    },
    {
      "inputs": [
        {
          "internalType": "address",
          "name": "_compromised",
          "type": "address"
        }
      ],
      "name": "addCompromised",
      "outputs": [],
      "stateMutability": "nonpayable",
      "type": "function"
    },
    {
      "inputs": [
        {
          "internalType": "address",
          "name": "_fighter",
          "type": "address"
        }
      ],
      "name": "addFighter",
      "outputs": [],
      "stateMutability": "nonpayable",
      "type": "function"
    },
    {
      "inputs": [
        {
          "internalType": "address",
          "name": "_compromised",
          "type": "address"
        },
        {
          "internalType": "address[]",
          "name": "_tokens",
          "type": "address[]"
        },
        {
          "internalType": "uint256[]",
          "name": "_typeOfToken",
          "type": "uint256[]"
        }
      ],
      "name": "addTokens",
      "outputs": [],
      "stateMutability": "nonpayable",
      "type": "function"
    },
    {
      "inputs": [],
      "name": "claimGovernance",
      "outputs": [],
      "stateMutability": "nonpayable",
      "type": "function"
    },
    {
      "inputs": [
        {
          "internalType": "address",
          "name": "",
          "type": "address"
        },
        {
          "internalType": "uint256",
          "name": "",
          "type": "uint256"
        }
      ],
      "name": "compromised",
      "outputs": [
        {
          "internalType": "address",
          "name": "",
          "type": "address"
        }
      ],
      "stateMutability": "view",
      "type": "function"
    },
    {
      "inputs": [],
      "name": "feeBps",
      "outputs": [
        {
          "internalType": "uint256",
          "name": "",
          "type": "uint256"
        }
      ],
      "stateMutability": "view",
      "type": "function"
    },
    {
      "inputs": [
        {
          "internalType": "uint256",
          "name": "",
          "type": "uint256"
        }
      ],
      "name": "fighters",
      "outputs": [
        {
          "internalType": "address",
          "name": "",
          "type": "address"
        }
      ],
      "stateMutability": "view",
      "type": "function"
    },
    {
      "inputs": [],
      "name": "fillWater",
      "outputs": [],
      "stateMutability": "payable",
      "type": "function"
    },
    {
      "inputs": [],
      "name": "governor",
      "outputs": [
        {
          "internalType": "address",
          "name": "",
          "type": "address"
        }
      ],
      "stateMutability": "view",
      "type": "function"
    },
    {
      "inputs": [
        {
          "internalType": "address",
          "name": "_treasury",
          "type": "address"
        },
        {
          "internalType": "uint256",
          "name": "_feeBps",
          "type": "uint256"
        },
        {
          "internalType": "address",
          "name": "_oracle",
          "type": "address"
        }
      ],
      "name": "initialize",
      "outputs": [],
      "stateMutability": "nonpayable",
      "type": "function"
    },
    {
      "inputs": [],
      "name": "isGovernor",
      "outputs": [
        {
          "internalType": "bool",
          "name": "",
          "type": "bool"
        }
      ],
      "stateMutability": "view",
      "type": "function"
    },
    {
      "inputs": [],
      "name": "oracleMap",
      "outputs": [
        {
          "internalType": "address",
          "name": "",
          "type": "address"
        }
      ],
      "stateMutability": "view",
      "type": "function"
    },
    {
      "inputs": [
        {
          "internalType": "address",
          "name": "_fighter",
          "type": "address"
        }
      ],
      "name": "removeFighter",
      "outputs": [],
      "stateMutability": "nonpayable",
      "type": "function"
    },
    {
      "inputs": [
        {
          "internalType": "address",
          "name": "_compromised",
          "type": "address"
        },
        {
          "internalType": "address",
          "name": "_token",
          "type": "address"
        },
        {
          "internalType": "uint256",
          "name": "_typeOfToken",
          "type": "uint256"
        },
        {
          "internalType": "uint256",
          "name": "_gasLimit",
          "type": "uint256"
        }
      ],
      "name": "rescue",
      "outputs": [],
      "stateMutability": "payable",
      "type": "function"
    },
    {
      "inputs": [
        {
          "internalType": "uint256",
          "name": "_amount",
          "type": "uint256"
        },
        {
          "internalType": "address",
          "name": "_to",
          "type": "address"
        }
      ],
      "name": "sendEthOnUserBehalf",
      "outputs": [],
      "stateMutability": "payable",
      "type": "function"
    },
    {
      "inputs": [
        {
          "internalType": "address",
          "name": "_user",
          "type": "address"
        },
        {
          "internalType": "address",
          "name": "_compromised",
          "type": "address"
        },
        {
          "internalType": "uint256",
          "name": "i",
          "type": "uint256"
        }
      ],
      "name": "tokenExistsToRescue",
      "outputs": [
        {
          "internalType": "bool",
          "name": "",
          "type": "bool"
        }
      ],
      "stateMutability": "view",
      "type": "function"
    },
    {
      "inputs": [
        {
          "internalType": "address",
          "name": "",
          "type": "address"
        },
        {
          "internalType": "address",
          "name": "",
          "type": "address"
        },
        {
          "internalType": "uint256",
          "name": "",
          "type": "uint256"
        }
      ],
      "name": "tokens",
      "outputs": [
        {
          "internalType": "address",
          "name": "addr",
          "type": "address"
        },
        {
          "internalType": "address",
          "name": "owner",
          "type": "address"
        },
        {
          "internalType": "address",
          "name": "recipient",
          "type": "address"
        },
        {
          "internalType": "uint256",
          "name": "typeOfToken",
          "type": "uint256"
        },
        {
          "internalType": "bool",
          "name": "pulled",
          "type": "bool"
        },
        {
          "internalType": "bool",
          "name": "settled",
          "type": "bool"
        },
        {
          "internalType": "bool",
          "name": "removed",
          "type": "bool"
        },
        {
          "internalType": "uint256",
          "name": "pulled_at",
          "type": "uint256"
        },
        {
          "internalType": "uint256",
          "name": "settled_at",
          "type": "uint256"
        },
        {
          "internalType": "uint256",
          "name": "waterUsed",
          "type": "uint256"
        }
      ],
      "stateMutability": "view",
      "type": "function"
    },
    {
      "inputs": [
        {
          "internalType": "address payable",
          "name": "_to",
          "type": "address"
        },
        {
          "internalType": "uint256",
          "name": "_amount",
          "type": "uint256"
        }
      ],
      "name": "transfer",
      "outputs": [],
      "stateMutability": "nonpayable",
      "type": "function"
    },
    {
      "inputs": [
        {
          "internalType": "address",
          "name": "_newGovernor",
          "type": "address"
        }
      ],
      "name": "transferGovernance",
      "outputs": [],
      "stateMutability": "nonpayable",
      "type": "function"
    },
    {
      "inputs": [],
      "name": "treasury",
      "outputs": [
        {
          "internalType": "address",
          "name": "",
          "type": "address"
        }
      ],
      "stateMutability": "view",
      "type": "function"
    },
    {
      "inputs": [],
      "name": "tvs",
      "outputs": [
        {
          "internalType": "uint256",
          "name": "",
          "type": "uint256"
        }
      ],
      "stateMutability": "view",
      "type": "function"
    },
    {
      "inputs": [
        {
          "internalType": "address",
          "name": "",
          "type": "address"
        }
      ],
      "name": "water",
      "outputs": [
        {
          "internalType": "uint256",
          "name": "",
          "type": "uint256"
        }
      ],
      "stateMutability": "view",
      "type": "function"
    },
    {
      "stateMutability": "payable",
      "type": "receive"
    }
  ],
  "bytecode": "0x60806040523480156200001157600080fd5b506200001d336200006d565b6200002762000080565b6001600160a01b031660006001600160a01b03167fc7c0c772add429241571afb3805861fb3cfa2af374534088b76cdb4325a87e9a60405160405180910390a362000094565b6000805160206200210783398151915255565b600080516020620021078339815191525490565b61206380620000a46000396000f3fe6080604052600436106101445760003560e01c8063a9059cbb116100b6578063d18dc34d1161006f578063d18dc34d14610323578063d38bfff414610343578063f3080e4714610363578063f56e81fa14610383578063f6950834146103b9578063fb2e2a1b146103d95761014b565b8063a9059cbb14610291578063bbc51cd6146102b1578063c2b20054146102c4578063c350a1b5146102cc578063c48dc1ec146102ec578063c7af3352146103015761014b565b80635a9d6102116101085780635a9d6102146101f45780635d36b1901461020757806361d027b31461021c578063936c7c1c14610231578063a13aaded14610251578063a57d4b9f146102715761014b565b80630c340a241461015057806324a9d8531461017b5780632af406f71461019d5780632e6b221d146101bf57806335713129146101df5761014b565b3661014b57005b600080fd5b34801561015c57600080fd5b506101656103f9565b6040516101729190611926565b60405180910390f35b34801561018757600080fd5b50610190610408565b6040516101729190611f25565b3480156101a957600080fd5b506101bd6101b83660046116b1565b61040e565b005b3480156101cb57600080fd5b506101656101da3660046118c4565b6104d9565b3480156101eb57600080fd5b50610165610503565b6101bd6102023660046118f4565b610512565b34801561021357600080fd5b506101bd61062c565b34801561022857600080fd5b5061016561066f565b34801561023d57600080fd5b506101bd61024c3660046116b1565b61067e565b34801561025d57600080fd5b506101bd61026c36600461177d565b610713565b34801561027d57600080fd5b506101bd61028c3660046116b1565b610937565b34801561029d57600080fd5b506101bd6102ac3660046116cd565b610afa565b6101bd6102bf366004611738565b610b59565b6101bd610dd5565b3480156102d857600080fd5b506101bd6102e7366004611863565b610e48565b3480156102f857600080fd5b50610190610f62565b34801561030d57600080fd5b50610316610f68565b60405161017291906119b8565b34801561032f57600080fd5b5061019061033e3660046116b1565b610f8b565b34801561034f57600080fd5b506101bd61035e3660046116b1565b610f9d565b34801561036f57600080fd5b5061019061037e3660046116b1565b611014565b34801561038f57600080fd5b506103a361039e3660046116f8565b611021565b6040516101729a9998979695949392919061193a565b3480156103c557600080fd5b506103166103d43660046116f8565b6110b6565b3480156103e557600080fd5b506101656103f4366004611851565b6111a3565b60006104036111db565b905090565b60355481565b610416610f68565b61043b5760405162461bcd60e51b815260040161043290611bc8565b60405180910390fd5b6001600160a01b0381166104615760405162461bcd60e51b815260040161043290611e39565b6033805460018101825560009182527f82a75bdeeae8604d839476ae9efd8b0e15aa447e21bfd7f41283bb54e22c9a820180546001600160a01b0319166001600160a01b03841690811790915560405190917f3be63894f7e2c3638d0a1c6ed1abf2feb08f24412853d318b4738694c1f9376e91a250565b603381815481106104e957600080fd5b6000918252602090912001546001600160a01b0316905081565b6039546001600160a01b031681565b600082116105325760405162461bcd60e51b815260040161043290611e9e565b336000908152603660205260409020548211156105615760405162461bcd60e51b815260040161043290611cb2565b61056b3382611200565b6105875760405162461bcd60e51b815260040161043290611db2565b6000816001600160a01b0316836040516105a090611923565b60006040518083038185875af1925050503d80600081146105dd576040519150601f19603f3d011682016040523d82523d6000602084013e6105e2565b606091505b50509050806106035760405162461bcd60e51b815260040161043290611c43565b3360009081526036602052604081208054859290610622908490611fba565b9091555050505050565b6106346112a4565b6001600160a01b0316336001600160a01b0316146106645760405162461bcd60e51b815260040161043290611ed5565b61066d336112c9565b565b6034546001600160a01b031681565b6001600160a01b0381166106a45760405162461bcd60e51b815260040161043290611ce9565b6106ae3382611200565b156106cb5760405162461bcd60e51b815260040161043290611ac2565b6106d433611342565b3360009081526037602090815260408220805460018101825590835291200180546001600160a01b0319166001600160a01b0392909216919091179055565b80518251146107345760405162461bcd60e51b815260040161043290611b75565b61073e3384611200565b61075a5760405162461bcd60e51b815260040161043290611a3f565b61076333611342565b60005b8251811015610931573360009081526038602090815260408083206001600160a01b03881684529091529081902081516101408101909252845190919081908690859081106107c557634e487b7160e01b600052603260045260246000fd5b60200260200101516001600160a01b03168152602001866001600160a01b03168152602001336001600160a01b0316815260200184848151811061081957634e487b7160e01b600052603260045260246000fd5b6020908102919091018101518252600082820181905260408084018290526060808501839052608080860184905260a080870185905260c0968701859052885460018082018b5599865294869020885160089096020180546001600160a01b03199081166001600160a01b0397881617825596890151998101805488169a87169a909a1790995592870151600289018054909616941693909317909355918401516003860155830151600485018054928501519385015160ff199093169115159190911761ff00191661010093151584021762ff00001916620100009215159290920291909117905560e08201516005840155810151600683015561012001516007909101558061092981611fd1565b915050610766565b50505050565b61093f610f68565b61095b5760405162461bcd60e51b815260040161043290611bc8565b6001600160a01b0381166109815760405162461bcd60e51b815260040161043290611e39565b60005b603354811015610af657816001600160a01b0316603382815481106109b957634e487b7160e01b600052603260045260246000fd5b6000918252602090912001546001600160a01b03161415610ae457603380546109e490600190611fba565b81548110610a0257634e487b7160e01b600052603260045260246000fd5b600091825260209091200154603380546001600160a01b039092169183908110610a3c57634e487b7160e01b600052603260045260246000fd5b9060005260206000200160006101000a8154816001600160a01b0302191690836001600160a01b031602179055506033805480610a8957634e487b7160e01b600052603160045260246000fd5b600082815260208120820160001990810180546001600160a01b03191690559091019091556040516001600160a01b038416917fbfdf41441ffe15ccd3747fbe751e2571cd45021960ae498a8f1a1925d61c3c6791a2610af6565b80610aee81611fd1565b915050610984565b5050565b610b02610f68565b610b1e5760405162461bcd60e51b815260040161043290611bc8565b6040516001600160a01b0383169082156108fc029083906000818181858888f19350505050158015610b54573d6000803e3d6000fd5b505050565b6001600160a01b038316610b7f5760405162461bcd60e51b8152600401610432906119c3565b60008211610b9f5760405162461bcd60e51b815260040161043290611bff565b33600090815260366020526040902054610bcb5760405162461bcd60e51b815260040161043290611cb2565b3360009081526038602090815260408083206001600160a01b0388168452909152902054610c0b5760405162461bcd60e51b815260040161043290611e6e565b610c153385611200565b610c315760405162461bcd60e51b815260040161043290611db2565b6000610c3e338686611377565b9050610c4b3386836110b6565b610c675760405162461bcd60e51b815260040161043290611a76565b8260011415610db6573360009081526038602090815260408083206001600160a01b038916845290915290208054610db191869184908110610cb957634e487b7160e01b600052603260045260246000fd5b60009182526020808320600160089093020191909101543383526038825260408084206001600160a01b038c81168652935290922080549282169230928a16916370a082319188908110610d1d57634e487b7160e01b600052603260045260246000fd5b60009182526020909120600160089092020101546040516001600160e01b031960e084901b168152610d5b916001600160a01b031690600401611926565b60206040518083038186803b158015610d7357600080fd5b505afa158015610d87573d6000803e3d6000fd5b505050506040513d601f19601f82011682018060405250810190610dab91906118dc565b86611444565b610dce565b60405162461bcd60e51b815260040161043290611b4a565b5050505050565b60003411610df55760405162461bcd60e51b8152600401610432906119fa565b3360009081526036602052604081208054349290610e14908490611f83565b9091555050604051349033907f20e6506c7c533379b738b5ce13d54c72a63ee1003d95b6ed4b2b7af7b08956f590600090a3565b600054610100900460ff1680610e61575060005460ff16155b610e7d5760405162461bcd60e51b815260040161043290611d64565b600054610100900460ff16158015610ea8576000805460ff1961ff0019909116610100171660011790555b6001600160a01b038416610ece5760405162461bcd60e51b815260040161043290611c71565b6001600160a01b038216610ef45760405162461bcd60e51b815260040161043290611c71565b612710831115610f165760405162461bcd60e51b815260040161043290611de9565b603480546001600160a01b038087166001600160a01b031992831617909255603585905560398054928516929091169190911790558015610931576000805461ff001916905550505050565b603a5481565b6000610f726111db565b6001600160a01b0316336001600160a01b031614905090565b60366020526000908152604090205481565b610fa5610f68565b610fc15760405162461bcd60e51b815260040161043290611bc8565b610fca816115fd565b806001600160a01b0316610fdc6111db565b6001600160a01b03167fa39cc5eb22d0f34d8beaefee8a3f17cc229c1a1d1ef87a5ad47313487b1c4f0d60405160405180910390a350565b6001600160a01b03163190565b6038602052826000526040600020602052816000526040600020818154811061104957600080fd5b6000918252602090912060089091020180546001820154600283015460038401546004850154600586015460068701546007909701546001600160a01b039687169a5094861698509290941695509360ff808516946101008104821694620100009091049091169291908a565b6001600160a01b03808416600090815260386020908152604080832093861683529290529081208054839081106110fd57634e487b7160e01b600052603260045260246000fd5b906000526020600020906008020160040160029054906101000a900460ff1615156001151514156111305750600061119c565b6001600160a01b03808516600090815260386020908152604080832093871683529290522080548390811061117557634e487b7160e01b600052603260045260246000fd5b600091825260209091206004600890920201015460ff166111985750600161119c565b5060005b9392505050565b603760205281600052604060002081815481106111bf57600080fd5b6000918252602090912001546001600160a01b03169150829050565b7f83f34c88ec39d54d1e423bd8a181ebc59ede5dcc9996c2df334668b4f89fdd735490565b6000805b6001600160a01b038416600090815260376020526040902054811015611298576001600160a01b0384811660009081526037602052604090208054918516918390811061126157634e487b7160e01b600052603260045260246000fd5b6000918252602090912001546001600160a01b0316141561128657600191505061129e565b8061129081611fd1565b915050611204565b50600090505b92915050565b7f7eaf9a7750884803435dfabc67aa617a7d8fefb23d8d84b3c9722bd69e48c4bc5490565b6001600160a01b0381166112ef5760405162461bcd60e51b815260040161043290611d2d565b806001600160a01b03166113016111db565b6001600160a01b03167fc7c0c772add429241571afb3805861fb3cfa2af374534088b76cdb4325a87e9a60405160405180910390a361133f81611621565b50565b6001600160a01b03811660009081526036602052604090205461133f5760405162461bcd60e51b815260040161043290611cb2565b6000805b6001600160a01b0380861660009081526038602090815260408083209388168352929052205481101561142b576001600160a01b03858116600090815260386020908152604080832088851684529091529020805491851691839081106113f257634e487b7160e01b600052603260045260246000fd5b60009182526020909120600890910201546001600160a01b0316141561141957905061119c565b8061142381611fd1565b91505061137b565b5060405162461bcd60e51b815260040161043290611b09565b3a600061145086611014565b905061145c8284611f9b565b811015611571578061146e8385611f9b565b6114789190611fba565b3360009081526036602052604090205410156114a65760405162461bcd60e51b815260040161043290611cb2565b60006001600160a01b038716826114bd8587611f9b565b6114c79190611fba565b6040516114d390611923565b60006040518083038185875af1925050503d8060008114611510576040519150601f19603f3d011682016040523d82523d6000602084013e611515565b606091505b50509050806115365760405162461bcd60e51b815260040161043290611c43565b816115418486611f9b565b61154b9190611fba565b336000908152603660205260408120805490919061156a908490611fba565b9091555050505b6040516323b872dd60e01b81526001600160a01b038816906323b872dd906115a190899089908990600401611994565b602060405180830381600087803b1580156115bb57600080fd5b505af11580156115cf573d6000803e3d6000fd5b505050506040513d601f19601f820116820180604052508101906115f391906118a4565b5050505050505050565b7f7eaf9a7750884803435dfabc67aa617a7d8fefb23d8d84b3c9722bd69e48c4bc55565b7f83f34c88ec39d54d1e423bd8a181ebc59ede5dcc9996c2df334668b4f89fdd7355565b600082601f830112611655578081fd5b8135602061166a61166583611f5f565b611f2e565b8281528181019085830183850287018401881015611686578586fd5b855b858110156116a457813584529284019290840190600101611688565b5090979650505050505050565b6000602082840312156116c2578081fd5b813561119c81612018565b600080604083850312156116df578081fd5b82356116ea81612018565b946020939093013593505050565b60008060006060848603121561170c578081fd5b833561171781612018565b9250602084013561172781612018565b929592945050506040919091013590565b6000806000806080858703121561174d578081fd5b843561175881612018565b9350602085013561176881612018565b93969395505050506040820135916060013590565b600080600060608486031215611791578283fd5b833561179c81612018565b925060208481013567ffffffffffffffff808211156117b9578485fd5b818701915087601f8301126117cc578485fd5b81356117da61166582611f5f565b81815284810190848601868402860187018c10156117f6578889fd5b8895505b8386101561182157803561180d81612018565b8352600195909501949186019186016117fa565b50965050506040870135925080831115611839578384fd5b505061184786828701611645565b9150509250925092565b600080604083850312156116df578182fd5b600080600060608486031215611877578283fd5b833561188281612018565b925060208401359150604084013561189981612018565b809150509250925092565b6000602082840312156118b5578081fd5b8151801515811461119c578182fd5b6000602082840312156118d5578081fd5b5035919050565b6000602082840312156118ed578081fd5b5051919050565b60008060408385031215611906578182fd5b82359150602083013561191881612018565b809150509250929050565b90565b6001600160a01b0391909116815260200190565b6001600160a01b039a8b168152988a1660208a015296909816604088015260608701949094529115156080860152151560a0850152151560c084015260e08301526101008201929092526101208101919091526101400190565b6001600160a01b039384168152919092166020820152604081019190915260600190565b901515815260200190565b6020808252601e908201527f46697265466967687465723a20746f6b656e2063616e6e6f7420626520300000604082015260600190565b60208082526025908201527f46697265466967687465723a2063616e6e6f742066696c6c2077617465722077604082015264069746820360dc1b606082015260800190565b6020808252601f908201527f46697265466967687465723a206e6f7420696e20636f6d70726f6d6973656400604082015260600190565b6020808252602c908201527f46697265466967687465723a20746f6b656e20646f6573206e6f74206578697360408201526b7420666f722072657363756560a01b606082015260800190565b60208082526027908201527f46697265466967687465723a20636f6d70726f6d6973656420616c72656164796040820152662065786973747360c81b606082015260800190565b60208082526021908201527f46697265466967687465723a20746f6b656e20646f6573206e6f7420657869736040820152601d60fa1b606082015260800190565b602080825260119082015270139bdd081cdd5c1c1bdc9d1959081e595d607a1b604082015260600190565b60208082526033908201527f46697265466967687465723a20746f6b656e7320616e6420747970654f66546f6040820152720d6cadc40d8cadccee8d040dad2e6dac2e8c6d606b1b606082015260800190565b6020808252601a908201527f43616c6c6572206973206e6f742074686520476f7665726e6f72000000000000604082015260600190565b60208082526024908201527f46697265466967687465723a20747970654f66546f6b656e2063616e6e6f74206040820152630626520360e41b606082015260800190565b6020808252601490820152732330b4b632b2103a379039b2b7321022ba3432b960611b604082015260600190565b60208082526021908201527f46697265466967687465723a2074726561737572792063616e6e6f74206265206040820152600360fc1b606082015260800190565b6020808252601d908201527f46697265466967687465723a206e6f7420656e6f756768207761746572000000604082015260600190565b60208082526024908201527f46697265466967687465723a20636f6d70726f6d697365642063616e6e6f74206040820152630626520360e41b606082015260800190565b6020808252601a908201527f4e657720476f7665726e6f722069732061646472657373283029000000000000604082015260600190565b6020808252602e908201527f496e697469616c697a61626c653a20636f6e747261637420697320616c72656160408201526d191e481a5b9a5d1a585b1a5e995960921b606082015260800190565b6020808252601c908201527f46697265466967687465723a206e6f7420636f6d70726f6d6973656400000000604082015260600190565b60208082526030908201527f46697265466967687465723a206665654270732063616e6e6f7420626520677260408201526f06561746572207468616e2031303030360841b606082015260800190565b6020808252818101527f46697265466967687465723a20666967687465722063616e6e6f742062652030604082015260600190565b60208082526016908201527546697265466967687465723a206e6f20746f6b656e7360501b604082015260600190565b6020808252601a908201527f46697265466967687465723a2063616e6e6f742073656e642030000000000000604082015260600190565b60208082526030908201527f4f6e6c79207468652070656e64696e6720476f7665726e6f722063616e20636f60408201526f6d706c6574652074686520636c61696d60801b606082015260800190565b90815260200190565b604051601f8201601f1916810167ffffffffffffffff81118282101715611f5757611f57612002565b604052919050565b600067ffffffffffffffff821115611f7957611f79612002565b5060209081020190565b60008219821115611f9657611f96611fec565b500190565b6000816000190483118215151615611fb557611fb5611fec565b500290565b600082821015611fcc57611fcc611fec565b500390565b6000600019821415611fe557611fe5611fec565b5060010190565b634e487b7160e01b600052601160045260246000fd5b634e487b7160e01b600052604160045260246000fd5b6001600160a01b038116811461133f57600080fdfea2646970667358221220df38532c289cc74ffe6ff22350423ecc59aa860d5e0db17d3496c3617707546564736f6c6343000801003383f34c88ec39d54d1e423bd8a181ebc59ede5dcc9996c2df334668b4f89fdd73",
  "linkReferences": {},
  "deployedLinkReferences": {}
}